{
  "contractName": "Faucet",
  "abi": [
    {
      "inputs": [
        {
          "internalType": "address",
          "name": "",
          "type": "address"
        }
      ],
      "name": "funders",
      "outputs": [
        {
          "internalType": "bool",
          "name": "",
          "type": "bool"
        }
      ],
      "stateMutability": "view",
      "type": "function",
      "constant": true
    },
    {
      "inputs": [
        {
          "internalType": "uint256",
          "name": "",
          "type": "uint256"
        }
      ],
      "name": "lutfunders",
      "outputs": [
        {
          "internalType": "address",
          "name": "",
          "type": "address"
        }
      ],
      "stateMutability": "view",
      "type": "function",
      "constant": true
    },
    {
      "inputs": [],
      "name": "num",
      "outputs": [
        {
          "internalType": "uint256",
          "name": "",
          "type": "uint256"
        }
      ],
      "stateMutability": "view",
      "type": "function",
      "constant": true
    },
    {
      "inputs": [],
      "name": "numFunders",
      "outputs": [
        {
          "internalType": "uint256",
          "name": "",
          "type": "uint256"
        }
      ],
      "stateMutability": "view",
      "type": "function",
      "constant": true
    },
    {
      "inputs": [],
      "name": "owner",
      "outputs": [
        {
          "internalType": "address",
          "name": "",
          "type": "address"
        }
      ],
      "stateMutability": "view",
      "type": "function",
      "constant": true
    },
    {
      "stateMutability": "payable",
      "type": "receive",
      "payable": true
    },
    {
      "inputs": [],
      "name": "emitLog",
      "outputs": [
        {
          "internalType": "bytes32",
          "name": "",
          "type": "bytes32"
        }
      ],
      "stateMutability": "pure",
      "type": "function",
      "constant": true
    },
    {
      "inputs": [],
      "name": "teste1",
      "outputs": [],
      "stateMutability": "nonpayable",
      "type": "function"
    },
    {
      "inputs": [],
      "name": "teste2",
      "outputs": [],
      "stateMutability": "nonpayable",
      "type": "function"
    },
    {
      "inputs": [
        {
          "internalType": "address",
          "name": "newOwner",
          "type": "address"
        }
      ],
      "name": "transferOwnership",
      "outputs": [],
      "stateMutability": "nonpayable",
      "type": "function"
    },
    {
      "inputs": [],
      "name": "addFunds",
      "outputs": [],
      "stateMutability": "payable",
      "type": "function",
      "payable": true
    },
    {
      "inputs": [],
      "name": "getFunders",
      "outputs": [
        {
          "internalType": "address[]",
          "name": "",
          "type": "address[]"
        }
      ],
      "stateMutability": "view",
      "type": "function",
      "constant": true
    },
    {
      "inputs": [
        {
          "internalType": "uint8",
          "name": "index",
          "type": "uint8"
        }
      ],
      "name": "getFunderIndex",
      "outputs": [
        {
          "internalType": "address",
          "name": "",
          "type": "address"
        }
      ],
      "stateMutability": "view",
      "type": "function",
      "constant": true
    },
    {
      "inputs": [
        {
          "internalType": "uint256",
          "name": "value",
          "type": "uint256"
        }
      ],
      "name": "withdraw",
      "outputs": [],
      "stateMutability": "nonpayable",
      "type": "function"
    }
  ],
  "bytecode": "0x608060405234801561001057600080fd5b50336000806101000a81548173ffffffffffffffffffffffffffffffffffffffff021916908373ffffffffffffffffffffffffffffffffffffffff1602179055506103e8600181905550610d90806100696000396000f3fe6080604052600436106100c65760003560e01c8063a26759cb1161007f578063ea63a04411610059578063ea63a04414610254578063f2fde38b1461027f578063f42c13bf146102a8578063fd777d9e146102d3576100cd565b8063a26759cb14610208578063a941a09714610212578063b963268914610229576100cd565b8063031b3677146100d25780630f2cf5531461010f5780632e1a7d4d1461014c5780634e70b1dc146101755780638da5cb5b146101a05780639da924fd146101cb576100cd565b366100cd57005b600080fd5b3480156100de57600080fd5b506100f960048036038101906100f491906108e2565b6102ea565b604051610106919061092a565b60405180910390f35b34801561011b57600080fd5b506101366004803603810190610131919061097e565b61030a565b60405161014391906109ba565b60405180910390f35b34801561015857600080fd5b50610173600480360381019061016e9190610a0b565b61034a565b005b34801561018157600080fd5b5061018a6103e1565b6040516101979190610a47565b60405180910390f35b3480156101ac57600080fd5b506101b56103e7565b6040516101c291906109ba565b60405180910390f35b3480156101d757600080fd5b506101f260048036038101906101ed9190610a0b565b61040b565b6040516101ff91906109ba565b60405180910390f35b61021061043e565b005b34801561021e57600080fd5b5061022761055d565b005b34801561023557600080fd5b5061023e6105ed565b60405161024b9190610a47565b60405180910390f35b34801561026057600080fd5b506102696105f3565b6040516102769190610b20565b60405180910390f35b34801561028b57600080fd5b506102a660048036038101906102a191906108e2565b6106ed565b005b3480156102b457600080fd5b506102bd6107be565b6040516102ca9190610b5b565b60405180910390f35b3480156102df57600080fd5b506102e86107e6565b005b60036020528060005260406000206000915054906101000a900460ff1681565b6000600460008360ff16815260200190815260200160002060009054906101000a900473ffffffffffffffffffffffffffffffffffffffff169050919050565b8067016345785d8a0000811115610396576040517f08c379a000000000000000000000000000000000000000000000000000000000815260040161038d90610bd3565b60405180910390fd5b3373ffffffffffffffffffffffffffffffffffffffff166108fc839081150290604051600060405180830381858888f193505050501580156103dc573d6000803e3d6000fd5b505050565b60015481565b60008054906101000a900473ffffffffffffffffffffffffffffffffffffffff1681565b60046020528060005260406000206000915054906101000a900473ffffffffffffffffffffffffffffffffffffffff1681565b600033905061044b610876565b50600360008273ffffffffffffffffffffffffffffffffffffffff1673ffffffffffffffffffffffffffffffffffffffff16815260200190815260200160002060009054906101000a900460ff1661055a5760011515600360008373ffffffffffffffffffffffffffffffffffffffff1673ffffffffffffffffffffffffffffffffffffffff16815260200190815260200160002060009054906101000a905050508060046000600254815260200190815260200160002060006101000a81548173ffffffffffffffffffffffffffffffffffffffff021916908373ffffffffffffffffffffffffffffffffffffffff1602179055506002600081548092919061055490610c22565b91905055505b50565b60008054906101000a900473ffffffffffffffffffffffffffffffffffffffff1673ffffffffffffffffffffffffffffffffffffffff163373ffffffffffffffffffffffffffffffffffffffff16146105eb576040517f08c379a00000000000000000000000000000000000000000000000000000000081526004016105e290610cdc565b60405180910390fd5b565b60025481565b6060600060025467ffffffffffffffff81111561061357610612610cfc565b5b6040519080825280602002602001820160405280156106415781602001602082028036833780820191505090505b50905060005b6002548110156106e5576004600082815260200190815260200160002060009054906101000a900473ffffffffffffffffffffffffffffffffffffffff1682828151811061069857610697610d2b565b5b602002602001019073ffffffffffffffffffffffffffffffffffffffff16908173ffffffffffffffffffffffffffffffffffffffff168152505080806106dd90610c22565b915050610647565b508091505090565b60008054906101000a900473ffffffffffffffffffffffffffffffffffffffff1673ffffffffffffffffffffffffffffffffffffffff163373ffffffffffffffffffffffffffffffffffffffff161461077b576040517f08c379a000000000000000000000000000000000000000000000000000000000815260040161077290610cdc565b60405180910390fd5b806000806101000a81548173ffffffffffffffffffffffffffffffffffffffff021916908373ffffffffffffffffffffffffffffffffffffffff16021790555050565b60007f48656c6c6f776f726c6400000000000000000000000000000000000000000000905090565b60008054906101000a900473ffffffffffffffffffffffffffffffffffffffff1673ffffffffffffffffffffffffffffffffffffffff163373ffffffffffffffffffffffffffffffffffffffff1614610874576040517f08c379a000000000000000000000000000000000000000000000000000000000815260040161086b90610cdc565b60405180910390fd5b565b60006064905090565b600080fd5b600073ffffffffffffffffffffffffffffffffffffffff82169050919050565b60006108af82610884565b9050919050565b6108bf816108a4565b81146108ca57600080fd5b50565b6000813590506108dc816108b6565b92915050565b6000602082840312156108f8576108f761087f565b5b6000610906848285016108cd565b91505092915050565b60008115159050919050565b6109248161090f565b82525050565b600060208201905061093f600083018461091b565b92915050565b600060ff82169050919050565b61095b81610945565b811461096657600080fd5b50565b60008135905061097881610952565b92915050565b6000602082840312156109945761099361087f565b5b60006109a284828501610969565b91505092915050565b6109b4816108a4565b82525050565b60006020820190506109cf60008301846109ab565b92915050565b6000819050919050565b6109e8816109d5565b81146109f357600080fd5b50565b600081359050610a05816109df565b92915050565b600060208284031215610a2157610a2061087f565b5b6000610a2f848285016109f6565b91505092915050565b610a41816109d5565b82525050565b6000602082019050610a5c6000830184610a38565b92915050565b600081519050919050565b600082825260208201905092915050565b6000819050602082019050919050565b610a97816108a4565b82525050565b6000610aa98383610a8e565b60208301905092915050565b6000602082019050919050565b6000610acd82610a62565b610ad78185610a6d565b9350610ae283610a7e565b8060005b83811015610b13578151610afa8882610a9d565b9750610b0583610ab5565b925050600181019050610ae6565b5085935050505092915050565b60006020820190508181036000830152610b3a8184610ac2565b905092915050565b6000819050919050565b610b5581610b42565b82525050565b6000602082019050610b706000830184610b4c565b92915050565b600082825260208201905092915050565b7f63616e6e6f74207769746864726177206d6f7265207468616e20302e31657468600082015250565b6000610bbd602083610b76565b9150610bc882610b87565b602082019050919050565b60006020820190508181036000830152610bec81610bb0565b9050919050565b7f4e487b7100000000000000000000000000000000000000000000000000000000600052601160045260246000fd5b6000610c2d826109d5565b91507fffffffffffffffffffffffffffffffffffffffffffffffffffffffffffffffff8203610c5f57610c5e610bf3565b5b600182019050919050565b7f6f6e6c79206f776e65722063616e2063616c6c20746869732066756e6374696f60008201527f6e00000000000000000000000000000000000000000000000000000000000000602082015250565b6000610cc6602183610b76565b9150610cd182610c6a565b604082019050919050565b60006020820190508181036000830152610cf581610cb9565b9050919050565b7f4e487b7100000000000000000000000000000000000000000000000000000000600052604160045260246000fd5b7f4e487b7100000000000000000000000000000000000000000000000000000000600052603260045260246000fdfea264697066735822122068d4e6b077b905b06a5f48b7cb712248574aed57a016365c0f5363e23ff7ecef64736f6c63430008120033",
  "immutableReferences": {},
  "source": "// SPDX-License-Identifier: MIT\npragma solidity >=0.4.22 <0.9.0;\nimport \"./OwnedContract.sol\";\nimport \"./LoggerContract.sol\";\nimport \"./IFaucetContract.sol\";\n\ncontract Faucet is Owned,Logger, IFaucet{\n  uint public numFunders;\n  mapping(address=>bool) public funders;\n  mapping(uint=>address) public lutfunders;\n  modifier limitWithdraw(uint amount){\n    require (amount <= 100000000000000000,\"cannot withdraw more than 0.1eth\");\n    _;\n  }\n\n\n  receive() external payable{}\n  function emitLog() public override pure returns (bytes32){\n    return \"Helloworld\";\n  }\n\n  function teste1() external onlyOwner{\n    //so para adinistradores\n  }\n  function teste2() external onlyOwner{\n    //so para adinistradores\n  }\n  function transferOwnership(address newOwner) external onlyOwner{\n    owner=newOwner;\n  }\n  function addFunds() override external payable {\n    address funder = msg.sender;\n    teste3();\n    if (!funders[funder]){\n      funders[funder]==true;\n      lutfunders[numFunders] = funder;\n      numFunders++;\n\n    }\n  }\n  function getFunders() external view returns(address[] memory){\n    address[] memory _funders = new address[](numFunders);\n    for (uint i =0; i<numFunders;i++){\n      _funders[i]= lutfunders[i];\n\n    }\n    return _funders;\n\n  }\n\n  function getFunderIndex(uint8 index) external view returns (address){\n\n    return lutfunders[index];\n  }\n  function withdraw(uint value) override external limitWithdraw(value){\n    payable(msg.sender).transfer(value);\n \n  }\n}\n//const instance = await Faucet.deployed()\n//instance.addFunds({from: accounts[1], value: \"2000000000000000000\"})",
  "sourcePath": "D:\\Codes - programming\\solidity\\Solidity-Reactjs-studies-main\\faucet\\contracts\\FaucetContract.sol",
  "compiler": {
    "name": "solc",
    "version": "0.8.18+commit.87f61d96.Emscripten.clang"
  },
  "schemaVersion": "3.4.11",
  "updatedAt": "2023-06-09T02:32:35.232Z",
  "networkType": "ethereum",
  "devdoc": {
    "kind": "dev",
    "methods": {},
    "version": 1
  },
  "userdoc": {
    "kind": "user",
    "methods": {},
    "version": 1
  }
}